:020000000C945E
:1000020080000C9400000C9400000C9400000C94EE
:1000120000000C9400000C9400000C9400000C945E
:1000220000000C9400000C9400000C9400000C944E
:1000320000000C9400000C9400000C94AF000C948F
:1000420000000C9400000C94C4000C9400000C946A
:1000520000000C9400000C9400000C9400000C941E
:1000620000000C9400000C9400000C9400000C940E
:1000720000000C9400000C9400000C9400000C94FE
:1000820000000C9400000C9400001027E8036400A8
:100092000A00010000100001100001000000000130
:1000A20000004D3A2564004E4F524D414C004C4FDA
:1000B20057004D454449554D004849474800435271
:1000C20049544943414C00543A25642C463A25642C
:1000D2002C533A25730D0A00060004009E00070007
:1000E2000005A90004000705B00007000B05B400D5
:1000F20005001205BB0009001705C0000000F894B6
:10010200EE27ECBBF1E0F5BFE5BFE0936C008DE0BC
:10011200A2E0BB27ED938A95E9F780E090E1A0E0A9
:10012200B1E0ED930197E9F7EAEDF0E08591959161
:10013200009761F0A591B59105901590BF01F0016E
:1001420005900D920197E1F7FB01F0CFEFEFEDBFC4
:10015200E0E1EEBFC0E0D5E00C947E01AA93BA9331
:10016200EA93FA93EFB7EA93A0E2B5E00E9423067E
:10017200A2E2B5E00E942306E991EFBFF991E9916D
:10018200B991A9911895AA93EA93FA93EFB7EA93D2
:100192001A931CB11A3071F4E0916405F0E0E05B4F
:1001A200FA4FA0E0A083E1E0E0936505E0E0E09390
:1001B20064050EC0A0916405A33150F4E09164057A
:1001C200EF5FE0936405E150F0E0E05BFA4F1083EB
:1001D2001991E991EFBFF991E991A99118956620DA
:1001E20061F40E942906E0E0F0E068EC71E40E940C
:1001F200A90710F0E1E06E2E5CC0E1E0E615B9F46B
:100202000E942906E0E0F0E060EC71E40E94A90798
:1002120010F466240BC00E942906E0E0F0E060EFD3
:1002220071E40E94A90710F0E2E06E2E42C0E2E003
:10023200E615B9F40E942906E0E0F0E068EE71E408
:100242000E94A90710F4E1E00AC00E942906E0E03A
:10025200F0E06CE072E40E94A90710F0E3E06E2E79
:1002620028C0E3E0E615B9F40E942906E0E0F0E0D8
:1002720068E072E40E94A90710F4E2E00AC00E945A
:100282002906E0E0F0E060E272E40E94A90710F0C3
:10029200E4E06E2E0EC0E4E0E61559F40E94290651
:1002A200E0E0F0E06CE172E40E94A90710F4E3E000
:1002B2006E2EE62DF0E0309719F4442455241CC02C
:1002C200E130A0E0FA0719F4EEE1F0E014C0E23008
:1002D200A0E0FA0719F4E2E3F0E00DC0E330A0E099
:1002E200FA0719F4EBE4F0E006C0E430A0E0FA0704
:1002F20019F4E4E6F0E02F010895C9D00E945D02EE
:100302000E948102EBE0E3BFECE7E1BFE2E0E7BF7E
:100312007894E0916505E03009F1E0E0E09365054D
:10032200A0915005A13419F4E1E07E2E17C0A091EE
:100332005005AD3499F47724E0E5F5E0FA93EA93B9
:10034200E4EAF0E0FA93EA93E8E0F0E060E070E0DB
:100352000E94EE0784E00E94AD052896A091200538
:10036200B0912105A436E0E0BE0740F1E0E0E09361
:100372002005E0932105A0E08FD0662777270E9411
:10038200E806A0E0B0E08AEF93E40E941607DF01DE
:10039200CB01E0E0F0EC6FE774E40E946407E093C5
:1003A2002405F0932505609326057093270517DF32
:1003B200772009F42401D2010E946602A09122054D
:1003C200B0912305A83EE3E0BE0708F45EC02F9774
:1003D200E0E0E0932205E0932305E62DF0E030977C
:1003E20029F40E943206A0E0B5E023C0E130A0E08B
:1003F200FA0729F40E943206A7E0B5E01AC0E230FB
:10040200A0E0FA0729F40E943206ABE0B5E011C081
:10041200E330A0E0FA0729F40E943206A2E1B5E037
:1004220008C0E430A0E0FA0731F40E943206A7E1E6
:10043200B5E00E94DA05E8E2F5E0FA93EA93E9EC26
:10044200F0E0FA93EA93E0912405F091250560919A
:100452002605709127050E94B1060E94D9070E94C5
:10046200EE07F201662777270E94EE07FE013C960F
:10047200662777270E94EE078CE00E940F046096A1
:10048200A8E2B5E00E9493022F9643CFFFCFE0E4AB
:10049200E7B9E6E8E6B90895AA93E881E064E7B926
:1004A2000000000000000000369A349BFECF349A10
:1004B200E4B1F5B10C949102E3E2E7BBE1E0E8BB01
:1004C200E1E8EFBDEBE0EEBD0895BA93AA93E881AF
:1004D200F981662777270E94E806A0E0B0E08FE75F
:1004E20093E40E941607DF01CB01E0E0F0E068EC44
:1004F20072E40E9464070E94AF06FBBDEABD1FC002
:10050200E0E0E0939000E3E3E9B9E8E9EAB9E6E084
:10051200E09395000895AA935D9BFECFE881ECB924
:1005220021960895BA93AA93A881B981EC91E030FB
:1005320031F0ED91A883B983AE2FEDDFF5CF22968E
:100542000895BA93AA931A930A93AA81BB81129629
:100552000E94E607309729F1AA81BB8114960E9476
:10056200E6078F01309761F00230E0E01E0780F06D
:10057200F80131978F01AA81BB811496ED93FC9308
:10058200AA81BB8112960E9423063197AC81A08377
:10059200AA81BB810E94E607FF2312F00E94230674
:1005A20006C0AA81BB81EFEFFFEFED93FC931981A7
:1005B20008818EC1BA93AA9326970E94F30710E08E
:1005C200AC85BD85E0E0F0E0ED93FC93EA89FB8920
:1005D2003196EA8BFB8B3197E4912E2FE03009F4B0
:1005E20015C1E12FE03039F4253211F411E002C0D7
:1005F2000E9436060AC1E130A9F4253219F40E949C
:10060200360602C112E040E000E02D3211F401E0B2
:10061200FCC02B3211F44BE2F8C0203211F440E25C
:10062200F4C002C0E23039F450E013E0203311F498
:100632000068EBC003C0E33009F0E7C0203310F0DC
:100642002A3308F007C0AAE05A9F502DE22FE05348
:100652005E0FDBC0E22FE33649F40E943D06E889D3
:10066200F989A481AA930E944306CEC0E33741F4DC
:100672000E943D060E9449060E94E7051E2F0AC0FD
:10068200E03761F40E943D060E9449060E94F3058C
:100692001E2F086002600F7730E034C0E43611F09C
:1006A200E93611F4046002C0E53731F4ECE8F0E019
:1006B200EE83FF8315E00CC0E83511F4086003C037
:1006C200E83709F0A1C0E6E9F0E0EE83FF8314E029
:1006D20002FF14C00E943D060E945306AB85AA2366
:1006E2003AF4EA85FB850E94CD07EA87FB874DE253
:1006F200403011F01F5F01C00B7F04C00E943D0615
:100702000E94530600FD11C0151778F407FF08C0B8
:1007120002FF04C00B7F242F115001C020E301C04F
:1007220020E20E9436065150EFCF312F01FF17C051
:100732003030A1F003FF06C0EE81FF812591EE83E8
:10074200FF8305C0AE81BF812D91AE83BF830E941E
:100752003606503009F051503150EACF4BC020E3F9
:10076200EE81FF810E94EA07E887F987EE81FF8127
:100772003296EE83FF83E885F985AA85BB85AE179D
:10078200BF0750F02F5FA885B985EA85FB85EA1B74
:10079200FB0BEA87FB87EFCF2A3328F003FF02C067
:1007A200295F01C0295D04FD1AC0213320F4A88508
:1007B200B985119709F409C0531710F000FF01C061
:1007C20013C020E207FF0BC020E3006102FF07C055
:1007D2000B7F4A930E944306503009F051500E9409
:1007E2003606503009F051503150A885B98512971C
:1007F20008F0B5CF00FF08C0503031F05150E0E2B0
:10080200EA930E944306F8CF10E0E0CEAC85BD85A6
:100812000E94E6070E94FA0764960895FF92F82E56
:1008220026970E94F5070E945B06309719F4EFEFB6
:10083200FFEF21C0DE0116960E94C9078D010E94BA
:100842005B06EE83FF83E0E0E887E987DE011A9624
:100852000E946206FA93EA931A930A93E2EAF2E09A
:10086200FA93EA93DE011A96A5DE9F01AE81BF815B
:10087200E0E0EC93F9010E94FC072A96FF900895AC
:10088200BA93AA931A93A981BA81E0E0EC93AB815F
:10089200BC81EC911E2FE03019F0E0E0EC9316C021
:1008A200A981BA8111960E94E607309771F0E98119
:1008B200FA81A181B281EC911E2FE03029F0A98149
:1008C200BA8111960E94230601C010E0E12F18811F
:1008D20025960895FF92BA93AA9324970E94F3074C
:1008E200E0E0F0E0E887F9874E2FE889F989319650
:1008F200E88BF98B3197E4913E2FE03009F425C162
:100902000E946706C1F0EDB7FEB7FA93EA934F93E0
:100912000E946C064F913E2FE03019F00E9467064C
:1009220009F407C00E9472061CF4EFEFFFEF0FC13B
:10093200EACF432F09C1353209F0EEC050E0E88911
:10094200F9893591E88BF98B303310F03A3308F09E
:1009520007C0AAE05A9F502DE32FE0535E0FEFCF5E
:10096200303009F4F2C0EDB7FEB7FA93EA934F9331
:100972000E946C064F912E2FAE2F0E940906E03086
:1009820039F00E9472061CF4EFEFFFEFE0C0EBCFEC
:10099200203009F4D1C0422F503009F45FEFE32F29
:1009A200E33699F40E947706EDB7FEB7FA93EA931D
:1009B2004F930E946C064F91D801EC930E947206ED
:1009C2001CF4EFEFFFEFC3C0A1C0E33741F50E9473
:1009D2007706E52F5150E030F1F0EDB7FEB7FA930C
:1009E200EA934F930E946C064F913E2FE03019F02C
:1009F2000E94670639F00E9472061CF4EFEFFFEFC7
:100A0200A6C009C01F930F930F5F1F4FE32FAF9133
:100A1200BF91EC93DECFD801E0E0EC9377C068940D
:100A2200F1F8E894F2F8E32FE43611F0E93619F41C
:100A3200E894F1F802C0E53711F42AE008C0E8377B
:100A420011F420E104C0E53209F466C07EC0E0E0A2
:100A5200EE83EF836894F0F8E52F5150E03009F40B
:100A620046C0EDB7FEB7FA93EA934F930E946C0625
:100A72004F913E2FE13238F40E9472061CF4EFEFE0
:100A8200FFEF65C017C0F1FC08C06894F1F83D3271
:100A920011F4F2F8E1CF3B32F9F2203131F4A32F15
:100AA2000E941406E03031F009C0A32F0E94000614
:100AB200E03021F4F0FC49C0432F19C0313610F068
:100AC200375505C0313410F0375301C03053E22F8F
:100AD200AE81BF81F0E00E94DE07DF01E32FF0E08C
:100AE200EA0FFB1FEE83FF83E894F0F8B5CF0E9474
:100AF2007706F2FE06C0EE81FF810E94CD07EE83EB
:100B0200FF83EE81FF81D801ED93FC93E885F9859F
:100B12003196E887F98718C0EDB7FEB7FA93EA93E2
:100B22004F930E946C064F91E31771F00E94720678
:100B32001CF4EFEFFFEF0BC0E885F985309719F44D
:100B4200EFEFFFEF04C001C0D0CEE885F9850E9427
:100B5200FA076296FF900895FF92F82E23971A9350
:100B62000A93DE0117960E946206309719F4EFEF9E
:100B7200FFEF1AC0DE0111960E94C9078D01DE0146
:100B820017960E946206EB83FC83DE0115960E9493
:100B92006206FA93EA931A930A93E1E4F4E0FA9371
:100BA200EA93DE01189696DE198108812596FF9058
:100BB2000895BA93AA93E991F991A991B991CD01B6
:100BC20061916D936623E1F7FC010895BA93AA93AC
:100BD200A991B991EE27FF276D91662311F0319605
:100BE200FBCF0895BA93AA93AA27BB27E991F9915B
:100BF2000590002011F01196FBCFFD010895AA93F4
:100C0200E1E0F991F03310F0FA3308F0EE2708959D
:100C1200AA93E1E0F991F03229F0F93010F0FE30B8
:100C220008F0EE270895AA93E1E0F991F05340F01D
:100C3200FA3038F0FF75F750FA3010F0F03108F062
:100C4200EE270895ED91FD913196FE93EE9308956E
:100C5200A0912405B0912505809126059091270544
:100C62000895FE01FA93EA9308952A93AD85BE850D
:100C7200EF85F88909950895E889F9893497E88B11
:100C8200F98B0895AD85BE85EF85F889099508959C
:100C9200A889B98914960E94E607EE83FF83AE8184
:100CA200BF810895A889B98914960E94E607EA8748
:100CB200FB870895DE011C960E94C9070E94E60781
:100CC20008950E94C9070E94E6070895A32F0E9473
:100CD2000906E0300895AC85BD85EE85FF8509954E
:100CE2000895AA85BB85AC91A0300895EE85FF8555
:100CF2003497EE87FF87AE85BF8514960D911C91C0
:100D02000895552342F4503811F4E0FF04C031969F
:100D1200691F791F6BF050E8572711F45F9373C076
:100D22005F3F31F0660F000C57956795752F089558
:100D32005F9300200AF073C06CC050E8192E152290
:100D4200880F991F9527550F879550E8072E052282
:100D5200660F771F7527550F67950895689401C030
:100D6200E8945F93F2DF703818F07F3F08F44BC0CD
:100D720056E1571BAAF4519558300EF4593030F011
:100D8200EFEFFFEF6FEF7FE777F91AC07727552371
:100D9200B9F0EE0FFF1F661F771F5A95D1F710C0EB
:100DA2007727583028F0EF2FF62F672F5850F9CFBA
:100DB200552331F076956795F795E7955A95D1F7D2
:100DC20000200AF4EDD05F910895689401C0E89480
:100DD200309760407040B1F0002426F0772312F47F
:100DE2000094DED0172E7EE1112032F07A95EE0FBC
:100DF200FF1F661F111CF9CFEF2FF62F612D5F9396
:100E02008ADF5F910895EE27FF27662777275F9194
:100E12000895EFEFFFEF6FE77FEF5F910895EFEF38
:100E2200FFEF6FE77FE75F9108955F9386DF70388A
:100E320051F3903841F301240894791F23F41CF3F1
:100E420000203AF3ECCF0F921F932F933F934F93CF
:100E5200112722279927689FA0018F9F302D410DCE
:100E6200591F6B9F300D411D591F8E9F27D0BF9F69
:100E720025D06A9F23D0BE9F1DD0AF9F1BD0AE9FAF
:100E8200110D291F391F491F591FE32FF42F652FF9
:100E9200522F4F913F912F911F910F9066232AF06D
:100EA200550FEE1FFF1F661F02C073954BF229DF1D
:100EB2005F910895100D211D391F02C0200D311DB3
:100EC200491F591F08955F9338DF703821F41120AC
:100ED2000AF49FCFA4CF903809F495CF0124089447
:100EE200970B1BF4D4F30020F3CF792F1F932F938A
:100EF2003F934F9311241127222733274427552745
:100F020090E2AE17BF078607410730F0AE1BBF0B5A
:100F1200860B410B089401C08894551F221F331F72
:100F2200111CAA1FBB1F881F441F9A9551F7F90174
:100F3200612D4F913F912F911F91662332F0550FF2
:100F4200EE1FFF1F661F7A9543F2DBDE5F91089565
:100F520099239AF0772342F0971748F029F4AE17B5
:100F6200BF07860720F031F09894889408959894EA
:100F7200089408951894889408957723C2F79717D0
:100F820098F3A9F7EA17FB07680788F399F3ECCF00
:100F92000024AF0DB01D0895F195E195F04008953C
:100FA200F09560957095E195FF4F6F4F7F4F0895D3
:100FB2006F2F660F660B762F0895FA9FF02DEB9F29
:100FC200F00DEA9FE02DF10D0895ED91FC9111973E
:100FD20008950590F491E02D08957A936A93FA9317
:100FE200EA9308955A934A933A932A931A930A9347
:100FF20008955D814C813B812A8119810881089580
:00000001FF
