:060000000C94BE000C94FC
:1000060000000C9400000C9400000C9400000C946A
:1000160000000C9400000C9400000C9400000C945A
:1000260000000C9400000C9400000C9400000C944A
:1000360000000C9400000C94ED000C9400000C944D
:1000460000000C940E010C9400000C9400000C941B
:1000560000000C9400000C9400000C9400000C941A
:1000660000000C9400000C9400000C9400000C940A
:1000760000000C9400000C9400000C9400000C94FA
:1000860000000C9400001027E80364000A00010039
:100096000010000110000100010000000000000037
:1000A60001010100410A004D3A25640A00535953E3
:1000B60054454D205354415254494E4700554152E0
:1000C60054204552524F5200543A25642C463A2544
:1000D600642C533A25730A004E4F524D414C004E44
:1000E6004F524D00435249544943414C00435249F3
:1000F60054004D454449554D004D45440054454D29
:10010600503A2025642043202573004155544F0062
:100116004D414E0046414E203A2564252520257343
:100126000046414E203A20256425252025730000EF
:1001360080C00A0004009E0001007005A8000300AC
:100146000005AA0007000305DE0005000A05E50014
:1001560009000F05EA0005001805F30007001D0554
:10016600F80004002405FF0009002805EA00020043
:10017600710536010000F894EE27ECBBF1E0F5BFFF
:10018600E5BFE0936C008DE0A2E0BB27ED938A9576
:10019600E9F780E090E1A0E0B1E0ED930197E9F79F
:1001A600E8E3F1E085919591009761F0A591B5910D
:1001B60005901590BF01F00105900D920197E1F7AA
:1001C600FB01F0CFEFEFEDBFE0E1EEBFC0E0D5E021
:1001D6000C945701AA93BA93EA93FA93EFB7EA936A
:1001E600A0913105B0913205A03AEFE0BE0720F4A8
:1001F600A1E3B5E00E944207A3E3B5E00E944207EF
:10020600A5E3B5E00E944207E991EFBFF991E991B4
:10021600B991A9911895AA93EA93FA93EFB7EA933D
:100226001A931CB11A3091F4E0915F05F0E0E95C95
:10023600FA4FA0E0A083E1E0E0936005E0E0E09300
:100246005F05E0933105E093320510C01D3071F073
:10025600A0915F05A73250F4E0915F05EF5FE09350
:100266005F05E150F0E0E95CFA4F10831991E991DE
:10027600EFBFF991E991A99118952F97442019F0AC
:10028600A0E0B5E00EC00E944807EDEAF0E0FA9360
:10029600EA93F5010E944C0784E00E941A0528960D
:1002A600DE019AD12F960895679710E0E4B3EF60C8
:1002B600E4BBE0E0E5BBE1B3E87FE1BBE2B3E760C6
:1002C600E2BBA0E10E947E030E942E03A3EBB0E0F6
:1002D6000E946B0370D1EBE0E3BFECE7E1BFE2E025
:1002E600E7BF7894A0913505B0913605D29708F40A
:1002F60097C02397E0E0E0933505E0933605809BB1
:1003060002C0E1E001C0E0E0EA83819B02C0E1E0D7
:1003160001C0E0E0E983829B02C0E1E001C0E0E0C9
:10032600E883AA81A03019F4E1E0ED1509F01EC0BA
:10033600E42D0E94D3074E2E4420B9F4EBE4F0E0FE
:100346008E169F0614F05F0110C0E2E3F0E08E16F1
:100356009F0614F05F0109C0E9E1F0E08E169F06E2
:1003660014F05F0102C0AA24BB2487DF442009F0F1
:1003760051C0A981A03019F4E1E0EC1509F01FC0C5
:100386000A2C0B2819F4E9E1F0E017C0E9E1F0E0E6
:10039600EA15FB0519F4E2E3F0E00FC0E2E3F0E052
:1003A600EA15FB0519F4EBE4F0E007C0EBE4F0E036
:1003B600EA15FB0519F4E4E6F0E05F015EDFA881CB
:1003C600A03021F4A0917005A13009F023C0E4E625
:1003D600F0E0EA15FB0521F4EBE4F0E05F0119C05B
:1003E600EBE4F0E0EA15FB0521F4E2E3F0E05F015F
:1003F60010C0E2E3F0E0EA15FB0521F4E9E1F0E0E4
:100406005F0107C0E9E1F0E0EA15FB0511F4AA2453
:10041600BB2433DFDA80C980E881E0937005239638
:10042600A0913105B0913205A83BEBE0BE0768F01C
:10043600103051F40E942E03A3ECB0E00E946B032F
:10044600E5B3E07FE5BB11E0B4C010E0A091600524
:10045600A13009F08EC0E7E3F5E0FA93EA93EEECFB
:10046600F0E0FA93EA93E6E0F0E060E070E00E94E4
:10047600E807E8E0F0E060E070E00E94E807E1E607
:10048600F5E0662777270E94E8078CE00E94B80609
:100496006096E0E0E0936005E5B3E87FE5BB0E9487
:1004A6005107A3E0B5E00E94E506E03031F4A89AD2
:1004B6000E944807AAE0B5E020C00E945107AFE0BD
:1004C600B5E00E94E506E03031F4AA9A0E9448079A
:1004D600A8E1B5E012C0A99A0E945107ADE1B5E0C6
:1004E6000E94E506E03029F40E944807A4E2B5E040
:1004F60004C00E944807A1E6B5E00E94F9060E94E2
:100506002E030E945607E3E0F1E0FA93EA93F30123
:100516000E944C07442019F0E1E1F1E002C0E6E157
:10052600F1E00E945B07DE0116960E945C03E0E0A4
:10053600EA93A1E00E941D03E4E6F0E0E815F90560
:1005460029F40E945607EAE1F1E004C00E9456072A
:10055600E7E2F1E0FA93EA93F4010E944C07FE0108
:100566003896662777270E945B07DE0116960E945B
:100576005C030E945107A8E2B5E00E94E506E03060
:10058600B9F4A0913305B0913405A43FE1E0BE076C
:1005960070F0E0E0E0933305E0933405E52D0E942A
:1005A600D3075E2E552011F0AB9A01C0AB9801C05F
:1005B600AB9898CEFFCFE0E0E0939000E3E3E9B993
:1005C600E8E9EAB9E6E0E09395000895AA935D9B11
:1005D600FECFE881ECB9BCC0BA93AA93A881B981D1
:1005E600EC91E03031F0ED91A883B983AE2FEEDFC8
:1005F600F5CF2FC0AA93EBB3EF70AE2FE881E07F63
:10060600EA2BEBBB8DE08A95F1F7DA9A8DE08A95B5
:10061600F1F7DA988DE08A95F1F79AC0AA93A88146
:10062600E9DFE881E295E883A881E4DF85E88A9539
:10063600F1F78EC0AA93E881F0E0EF58FA4FE08117
:10064600A981AE0FEBDFE981E0937505E881E093C0
:10065600760522960895A2E00E946207ACE0DEDFEE
:10066600A1E00E946207E0E0E0937605E09375055D
:100676000895AA93A881AA3031F0E0917705A09158
:100686007505AE1760F0E0E0EA93A0917605AF5FDE
:10069600A0937605CFDFA881AA3009F459C0E0916E
:1006A6007505EF5FE0937505D89AA881B7DFD898EE
:1006B6004FC0BA93AA931A93A981BA81ED91A983DF
:1006C600BA831E2FE03019F0A12FD3DFF5CF10C06B
:1006D600BA93AA931A93E981FA813196E983FA8348
:1006E6003197E4911E2FE03019F0A12FC2DFF3CF2E
:1006F600188123960895AA93EAB3E06FEABBD29ACB
:10070600D09AD19ADA98D898D998E881E093770563
:10071600E058E0937305E881E054E0937405A4E1A2
:10072600B0E00E94BC070E9468070E9468070E940A
:100736006807A0E25FDF88EC90E00197F1F7A8E296
:100746006DDFA4E06BDFA5E869DFA6E067DF83DF86
:1007560021960895BA93AA931A930A93AA81BB8104
:1007660012960E94E007309729F1AA81BB81149660
:100776000E94E0078F01309761F00230E0E01E072B
:1007860080F0F80131978F01AA81BB811496ED9311
:10079600FC93AA81BB8112960E9442073197AC81D5
:1007A600A083AA81BB810E94E007FF2312F00E946A
:1007B600420706C0AA81BB81EFEFFFEFED93FC93E2
:1007C600198108818EC1BA93AA9326970E94ED07D4
:1007D60010E0AC85BD85E0E0F0E0ED93FC93EA899E
:1007E600FB893196EA8BFB8B3197E4912E2FE03013
:1007F60009F415C1E12FE03039F4253211F411E086
:1008060002C00E9470070AC1E130A9F4253219F42A
:100816000E94700702C112E040E000E02D3211F4A0
:1008260001E0FCC02B3211F44BE2F8C0203211F487
:1008360040E2F4C002C0E23039F450E013E0203365
:1008460011F40068EBC003C0E33009F0E7C02033C1
:1008560010F02A3308F007C0AAE05A9F502DE22F65
:10086600E0535E0FDBC0E22FE33649F40E947707C0
:10087600E889F989A481AA930E947D07CEC0E3374F
:1008860041F40E9477070E9483070E9406071E2FE5
:100896000AC0E03761F40E9477070E9483070E942E
:1008A60012071E2F086002600F7730E034C0E4366E
:1008B60011F0E93611F4046002C0E53731F4ECE8D2
:1008C600F0E0EE83FF8315E00CC0E83511F4086014
:1008D60003C0E83709F0A1C0E6E9F0E0EE83FF8344
:1008E60014E002FF14C00E9477070E948D07AB85B3
:1008F600AA233AF4EA85FB850E94CA07EA87FB87A2
:100906004DE2403011F01F5F01C00B7F04C00E9412
:1009160077070E948D0700FD11C0151778F407FFB1
:1009260008C002FF04C00B7F242F115001C020E332
:1009360001C020E20E9470075150EFCF312F01FF16
:1009460017C03030A1F003FF06C0EE81FF8125916C
:10095600EE83FF8305C0AE81BF812D91AE83BF8339
:100966000E947007503009F051503150EACF4BC009
:1009760020E3EE81FF810E94E407E887F987EE8194
:10098600FF813296EE83FF83E885F985AA85BB85CC
:10099600AE17BF0750F02F5FA885B985EA85FB859E
:1009A600EA1BFB0BEA87FB87EFCF2A3328F003FF0E
:1009B60002C0295F01C0295D04FD1AC0213320F45D
:1009C600A885B985119709F409C0531710F000FFDF
:1009D60001C013C020E207FF0BC020E3006102FF45
:1009E60007C00B7F4A930E947D07503009F0515093
:1009F6000E947007503009F051503150A885B985D2
:100A0600129708F0B5CF00FF08C0503031F05150B2
:100A1600E0E2EA930E947D07F8CF10E0E0CEAC85D5
:100A2600BD850E94E0070E94F40764960895FF9230
:100A3600F82E26970E94EF070E949507309719F423
:100A4600EFEFFFEF21C0DE0116960E94C6078D016B
:100A56000E949507EE83FF83E0E0E887E987DE01E1
:100A66001A960E949C07FA93EA931A930A93EDEA60
:100A7600F3E0FA93EA93DE011A96A5DE9F01AE81B2
:100A8600BF81E0E0EC93F9010E94F6072A96FF90F9
:100A96000895BA93AA931A93A981BA81E0E0EC93D8
:100AA600AB81BC81EC911E2FE03019F0E0E0EC93B5
:100AB60016C0A981BA8111960E94E007309771F09D
:100AC600E981FA81A181B281EC911E2FE03029F0F3
:100AD600A981BA8111960E94420701C010E0E12F58
:100AE600188125960895FF92BA93AA9324970E9497
:100AF600ED07E0E0F0E0E887F9874E2FE889F9890D
:100B06003196E88BF98B3197E4913E2FE03009F46A
:100B160025C10E94A107C1F0EDB7FEB7FA93EA938B
:100B26004F930E94A6074F913E2FE03019F00E9486
:100B3600A10709F407C00E94AC071CF4EFEFFFEF12
:100B46000FC1EACF432F09C1353209F0EEC050E09C
:100B5600E889F9893591E88BF98B303310F03A330F
:100B660008F007C0AAE05A9F502DE32FE0535E0F0E
:100B7600EFCF303009F4F2C0EDB7FEB7FA93EA933F
:100B86004F930E94A6074F912E2FAE2F0E94280743
:100B9600E03039F00E94AC071CF4EFEFFFEFE0C045
:100BA600EBCF203009F4D1C0422F503009F45FEF6B
:100BB600E32FE33699F40E94B107EDB7FEB7FA9337
:100BC600EA934F930E94A6074F91D801EC930E9497
:100BD600AC071CF4EFEFFFEFC3C0A1C0E33741F54C
:100BE6000E94B107E52F5150E030F1F0EDB7FEB7A6
:100BF600FA93EA934F930E94A6074F913E2FE03057
:100C060019F00E94A10739F00E94AC071CF4EFEF1F
:100C1600FFEFA6C009C01F930F930F5F1F4FE32F6F
:100C2600AF91BF91EC93DECFD801E0E0EC9377C0B3
:100C36006894F1F8E894F2F8E32FE43611F0E93617
:100C460019F4E894F1F802C0E53711F42AE008C077
:100C5600E83711F420E104C0E53209F466C07EC02D
:100C6600E0E0EE83EF836894F0F8E52F5150E03032
:100C760009F446C0EDB7FEB7FA93EA934F930E9484
:100C8600A6074F913E2FE13238F40E94AC071CF4C0
:100C9600EFEFFFEF65C017C0F1FC08C06894F1F8EC
:100CA6003D3211F4F2F8E1CF3B32F9F2203131F462
:100CB600A32F0E943307E03031F009C0A32F0E9412
:100CC6001F07E03021F4F0FC49C0432F19C031362C
:100CD60010F0375505C0313410F0375301C030538A
:100CE600E22FAE81BF81F0E00E94D807DF01E32F3B
:100CF600F0E0EA0FFB1FEE83FF83E894F0F8B5CF30
:100D06000E94B107F2FE06C0EE81FF810E94CA076B
:100D1600EE83FF83EE81FF81D801ED93FC93E88596
:100D2600F9853196E887F98718C0EDB7FEB7FA93CB
:100D3600EA934F930E94A6074F91E31771F00E9422
:100D4600AC071CF4EFEFFFEF0BC0E885F985309791
:100D560019F4EFEFFFEF04C001C0D0CEE885F985A6
:100D66000E94F4076296FF900895FF92F82E23974B
:100D76001A930A93DE0117960E949C07309719F47E
:100D8600EFEFFFEF1AC0DE0111960E94C6078D0134
:100D9600DE0117960E949C07EB83FC83DE01159605
:100DA6000E949C07FA93EA931A930A93ECE4F5E0FF
:100DB600FA93EA93DE01189696DE19810881259644
:100DC600FF900895BA93AA93E991F991A991B991DF
:100DD6006D917191671721F46623D1F7EE27089577
:100DE600671BE1F3E1E008F4E2500895BA93AA9391
:100DF600E991F991A991B991CD0161916D9366231C
:100E0600E1F7FC010895BA93AA93A991B991EE2747
:100E1600FF276D91662311F03196FBCF0895BA93A3
:100E2600AA93AA27BB27E991F9910590002011F012
:100E36001196FBCFFD010895AA93E1E0F991F033F5
:100E460010F0FA3308F0EE270895AA93E1E0F9913D
:100E5600F03229F0F93010F0FE3008F0EE27089550
:100E6600AA93E1E0F991F05340F0FA3038F0FF75BB
:100E7600F750FA3010F0F03108F0EE270895ED91B2
:100E8600FD913196FE93EE930895FE01FA93EA934F
:100E960008950E94CE070E94E8070895E1E6F5E06E
:100EA600FA93EA930895FE013696FA93EA93089523
:100EB6000E94E80788E00E941A052C9608950E9471
:100EC6001103A3E0B0E00C94BC07A0E30E94FD026E
:100ED60088EC90E00197F1F708952A93AD85BE85D9
:100EE600EF85F88909950895E889F9893497E88B9B
:100EF600F98B0895AD85BE85EF85F8890995089526
:100F0600A889B98914960E94E007EE83FF83AE8113
:100F1600BF810895A889B98914960E94E007EA87D7
:100F2600FB870895DE011C960E94C6070E94E00713
:100F360008950E94C6070E94E0070895A32F0E9405
:100F46002807E0300895AC85BD85EE85FF850995B7
:100F56000895AA85BB85AC91A0300895EE85FF85DE
:100F66003497EE87FF87AE85BF8514960D911C9149
:100F76000895109639F0A89580ED97E00197F1F75E
:100F86001197C9F708950024AF0DB01D0895F19586
:100F9600E195F04008956F2F660F660B762F089542
:100FA600EE23E1E009F0EE270895FA9FF02DEB9F7E
:100FB600F00DEA9FE02DF10D0895ED91FC9111974A
:100FC60008950590F491E02D08957A936A93FA9323
:100FD600EA9308955A934A933A932A931A930A9353
:100FE60008955D814C813B812A811981088108958C
:00000001FF
